{
  "abi": [
    {
      "anonymous": false,
      "inputs": [
        {
          "indexed": false,
          "internalType": "uint256",
          "name": "newValue",
          "type": "uint256"
        },
        {
          "indexed": false,
          "internalType": "uint256",
          "name": "timestamp",
          "type": "uint256"
        }
      ],
      "name": "ValueChanged",
      "type": "event"
    },
    {
      "inputs": [],
      "name": "getValue",
      "outputs": [
        {
          "internalType": "uint256",
          "name": "",
          "type": "uint256"
        }
      ],
      "stateMutability": "view",
      "type": "function"
    },
    {
      "inputs": [
        {
          "internalType": "uint256",
          "name": "_newValue",
          "type": "uint256"
        }
      ],
      "name": "setValue",
      "outputs": [],
      "stateMutability": "nonpayable",
      "type": "function"
    },
    {
      "inputs": [],
      "name": "value",
      "outputs": [
        {
          "internalType": "uint256",
          "name": "",
          "type": "uint256"
        }
      ],
      "stateMutability": "view",
      "type": "function"
    }
  ],
  "bytecode": "608060405234801561001057600080fd5b5060fe8061001f6000396000f3fe6080604052348015600f57600080fd5b5060043610603c5760003560e01c8063209652551460415780633fa4f2451460575780635524107714605f575b600080fd5b6000545b60405190815260200160405180910390f35b604560005481565b606e606a36600460b0565b6070565b005b6000819055604080518281524260208201527f2db947ef788961acc438340dbcb4e242f80d026b621b7c98ee30619950390382910160405180910390a150565b60006020828403121560c157600080fd5b503591905056fea264697066735822122099aa8f1c9fca582772ad5a32bcceef37ee9256a0acc8280385ae5cc664602ee664736f6c63430008090033",
  "bytecodeSha1": "569902d2382bedf47390811bd835dee08cfd8633",
  "compiler": {
    "evm_version": "istanbul",
    "optimizer": {
      "enabled": true,
      "runs": 200
    },
    "version": "0.8.9+commit.e5eed63a"
  },
  "contractName": "Box",
  "language": "Solidity",
  "natspec": {
    "kind": "dev",
    "methods": {},
    "version": 1
  },
  "opcodes": "PUSH1 0x80 PUSH1 0x40 MSTORE CALLVALUE DUP1 ISZERO PUSH1 0xF JUMPI PUSH1 0x0 DUP1 REVERT JUMPDEST POP PUSH1 0x4 CALLDATASIZE LT PUSH1 0x3C JUMPI PUSH1 0x0 CALLDATALOAD PUSH1 0xE0 SHR DUP1 PUSH4 0x20965255 EQ PUSH1 0x41 JUMPI DUP1 PUSH4 0x3FA4F245 EQ PUSH1 0x57 JUMPI DUP1 PUSH4 0x55241077 EQ PUSH1 0x5F JUMPI JUMPDEST PUSH1 0x0 DUP1 REVERT JUMPDEST PUSH1 0x0 SLOAD JUMPDEST PUSH1 0x40 MLOAD SWAP1 DUP2 MSTORE PUSH1 0x20 ADD PUSH1 0x40 MLOAD DUP1 SWAP2 SUB SWAP1 RETURN JUMPDEST PUSH1 0x45 PUSH1 0x0 SLOAD DUP2 JUMP JUMPDEST PUSH1 0x6E PUSH1 0x6A CALLDATASIZE PUSH1 0x4 PUSH1 0xB0 JUMP JUMPDEST PUSH1 0x70 JUMP JUMPDEST STOP JUMPDEST PUSH1 0x0 DUP2 SWAP1 SSTORE PUSH1 0x40 DUP1 MLOAD DUP3 DUP2 MSTORE TIMESTAMP PUSH1 0x20 DUP3 ADD MSTORE PUSH32 0x2DB947EF788961ACC438340DBCB4E242F80D026B621B7C98EE30619950390382 SWAP2 ADD PUSH1 0x40 MLOAD DUP1 SWAP2 SUB SWAP1 LOG1 POP JUMP JUMPDEST PUSH1 0x0 PUSH1 0x20 DUP3 DUP5 SUB SLT ISZERO PUSH1 0xC1 JUMPI PUSH1 0x0 DUP1 REVERT JUMPDEST POP CALLDATALOAD SWAP2 SWAP1 POP JUMP INVALID LOG2 PUSH5 0x6970667358 0x22 SLT KECCAK256 SWAP10 0xAA DUP16 SHR SWAP16 0xCA PC 0x27 PUSH19 0xAD5A32BCCEEF37EE9256A0ACC8280385AE5CC6 PUSH5 0x602EE66473 PUSH16 0x6C634300080900330000000000000000 ",
  "sha1": "7fac8ca4a0e78064a1e1745eb3fd1ba5e89c522f",
  "source": "// SPDX-License-Identifier: MIT\n\npragma solidity ^0.8.0;\n\ncontract Box {\n    uint256 public value;\n\n    event ValueChanged(uint256 newValue, uint256 timestamp);\n\n    function setValue(uint256 _newValue) public {\n        value = _newValue;\n\n        emit ValueChanged(_newValue, block.timestamp);\n    }\n\n    function getValue() public view returns (uint256) {\n        return value;\n    }\n}\n",
  "sourcePath": "contracts/Box.sol",
  "type": "contract"
}