{
  "abi": [
    {
      "anonymous": false,
      "inputs": [
        {
          "indexed": false,
          "internalType": "uint256",
          "name": "newValue",
          "type": "uint256"
        },
        {
          "indexed": false,
          "internalType": "uint256",
          "name": "timestamp",
          "type": "uint256"
        }
      ],
      "name": "ValueChanged",
      "type": "event"
    },
    {
      "inputs": [],
      "name": "getValue",
      "outputs": [
        {
          "internalType": "uint256",
          "name": "",
          "type": "uint256"
        }
      ],
      "stateMutability": "view",
      "type": "function"
    },
    {
      "inputs": [
        {
          "internalType": "uint256",
          "name": "_number",
          "type": "uint256"
        }
      ],
      "name": "increment",
      "outputs": [],
      "stateMutability": "nonpayable",
      "type": "function"
    },
    {
      "inputs": [
        {
          "internalType": "uint256",
          "name": "_newValue",
          "type": "uint256"
        }
      ],
      "name": "setValue",
      "outputs": [],
      "stateMutability": "nonpayable",
      "type": "function"
    },
    {
      "inputs": [],
      "name": "value",
      "outputs": [
        {
          "internalType": "uint256",
          "name": "",
          "type": "uint256"
        }
      ],
      "stateMutability": "view",
      "type": "function"
    }
  ],
  "bytecode": "608060405234801561001057600080fd5b50610166806100206000396000f3fe608060405234801561001057600080fd5b506004361061004c5760003560e01c806320965255146100515780633fa4f2451461006757806355241077146100705780637cf5dab014610085575b600080fd5b6000545b60405190815260200160405180910390f35b61005560005481565b61008361007e3660046100f1565b610098565b005b6100836100933660046100f1565b6100d8565b6000819055604080518281524260208201527f2db947ef788961acc438340dbcb4e242f80d026b621b7c98ee30619950390382910160405180910390a150565b806000808282546100e9919061010a565b909155505050565b60006020828403121561010357600080fd5b5035919050565b6000821982111561012b57634e487b7160e01b600052601160045260246000fd5b50019056fea264697066735822122001fc30a362cfb4b8beaeafbc5644f55bf2aea51c7a7f752e7b042d3c6430705d64736f6c63430008090033",
  "bytecodeSha1": "29eda0092c5816fabc5b31613576e7b1daa4f5fa",
  "compiler": {
    "evm_version": "istanbul",
    "optimizer": {
      "enabled": true,
      "runs": 200
    },
    "version": "0.8.9+commit.e5eed63a"
  },
  "contractName": "BoxV2",
  "language": "Solidity",
  "natspec": {
    "kind": "dev",
    "methods": {},
    "version": 1
  },
  "opcodes": "PUSH1 0x80 PUSH1 0x40 MSTORE CALLVALUE DUP1 ISZERO PUSH2 0x10 JUMPI PUSH1 0x0 DUP1 REVERT JUMPDEST POP PUSH1 0x4 CALLDATASIZE LT PUSH2 0x4C JUMPI PUSH1 0x0 CALLDATALOAD PUSH1 0xE0 SHR DUP1 PUSH4 0x20965255 EQ PUSH2 0x51 JUMPI DUP1 PUSH4 0x3FA4F245 EQ PUSH2 0x67 JUMPI DUP1 PUSH4 0x55241077 EQ PUSH2 0x70 JUMPI DUP1 PUSH4 0x7CF5DAB0 EQ PUSH2 0x85 JUMPI JUMPDEST PUSH1 0x0 DUP1 REVERT JUMPDEST PUSH1 0x0 SLOAD JUMPDEST PUSH1 0x40 MLOAD SWAP1 DUP2 MSTORE PUSH1 0x20 ADD PUSH1 0x40 MLOAD DUP1 SWAP2 SUB SWAP1 RETURN JUMPDEST PUSH2 0x55 PUSH1 0x0 SLOAD DUP2 JUMP JUMPDEST PUSH2 0x83 PUSH2 0x7E CALLDATASIZE PUSH1 0x4 PUSH2 0xF1 JUMP JUMPDEST PUSH2 0x98 JUMP JUMPDEST STOP JUMPDEST PUSH2 0x83 PUSH2 0x93 CALLDATASIZE PUSH1 0x4 PUSH2 0xF1 JUMP JUMPDEST PUSH2 0xD8 JUMP JUMPDEST PUSH1 0x0 DUP2 SWAP1 SSTORE PUSH1 0x40 DUP1 MLOAD DUP3 DUP2 MSTORE TIMESTAMP PUSH1 0x20 DUP3 ADD MSTORE PUSH32 0x2DB947EF788961ACC438340DBCB4E242F80D026B621B7C98EE30619950390382 SWAP2 ADD PUSH1 0x40 MLOAD DUP1 SWAP2 SUB SWAP1 LOG1 POP JUMP JUMPDEST DUP1 PUSH1 0x0 DUP1 DUP3 DUP3 SLOAD PUSH2 0xE9 SWAP2 SWAP1 PUSH2 0x10A JUMP JUMPDEST SWAP1 SWAP2 SSTORE POP POP POP JUMP JUMPDEST PUSH1 0x0 PUSH1 0x20 DUP3 DUP5 SUB SLT ISZERO PUSH2 0x103 JUMPI PUSH1 0x0 DUP1 REVERT JUMPDEST POP CALLDATALOAD SWAP2 SWAP1 POP JUMP JUMPDEST PUSH1 0x0 DUP3 NOT DUP3 GT ISZERO PUSH2 0x12B JUMPI PUSH4 0x4E487B71 PUSH1 0xE0 SHL PUSH1 0x0 MSTORE PUSH1 0x11 PUSH1 0x4 MSTORE PUSH1 0x24 PUSH1 0x0 REVERT JUMPDEST POP ADD SWAP1 JUMP INVALID LOG2 PUSH5 0x6970667358 0x22 SLT KECCAK256 ADD 0xFC ADDRESS LOG3 PUSH3 0xCFB4B8 0xBE 0xAE 0xAF 0xBC JUMP DIFFICULTY CREATE2 JUMPDEST CALLCODE 0xAE 0xA5 SHR PUSH27 0x7F752E7B042D3C6430705D64736F6C634300080900330000000000 ",
  "sha1": "f2541efe57d3893140897edf77489d89c578a7f8",
  "source": "// SPDX-License-Identifier: MIT\n\npragma solidity ^0.8.0;\n\ncontract BoxV2 {\n    uint256 public value;\n\n    event ValueChanged(uint256 newValue, uint256 timestamp);\n\n    function setValue(uint256 _newValue) public {\n        value = _newValue;\n\n        emit ValueChanged(_newValue, block.timestamp);\n    }\n\n    function getValue() public view returns (uint256) {\n        return value;\n    }\n\n    function increment(uint256 _number) public {\n        value += _number;\n    }\n}\n",
  "sourcePath": "contracts/BoxV2.sol",
  "type": "contract"
}